:020000040000FA
:100000000C9463000C948B000C948B000C948B006C
:100010000C948B000C948B000C948B000C948B0034
:100020000C948B000C948B000C948B000C948B0024
:100030000C948B000C948B000C948B000C948B0014
:100040000C94B0030C948B000C9420040C94FA03D1
:100050000C948B000C948B000C948B000C948B00F4
:100060000C948B000C948B000000000024002700EF
:100070002A0000000000250028002B0000000000DE
:1000800023002600290004040404040404040202DA
:100090000202020203030303030301020408102007
:1000A0004080010204081020010204081020000012
:1000B0000008000201000003040700000000000027
:1000C00000005204A60611241FBECFEFD8E0DEBF09
:1000D000CDBF11E0A0E0B1E0ECE8F2E102C0059094
:1000E0000D92A435B107D9F722E0A4E5B1E001C033
:1000F0001D92A231B207E1F710E0C2E6D0E004C0E1
:100100002197FE010E944107C136D107C9F70E941D
:10011000C6040C9439090C940000833081F028F453
:10012000813099F08230A9F008958730A9F08830A5
:10013000C9F08430B1F4809180008F7D03C080913C
:1001400080008F7780938000089584B58F7784BD79
:10015000089584B58F7DFBCF8091B0008F77809319
:10016000B00008958091B0008F7DF9CFCF93DF93D9
:10017000282F30E0F901E255FF4F8491F901E6564E
:10018000FF4FD491F901EA57FF4FC491CC23A1F05E
:1001900081110E948D00EC2FF0E0EE0FFF1FE4585C
:1001A000FF4FA591B491EC91ED2381E090E009F42B
:1001B00080E0DF91CF91089580E090E0FACF1F9327
:1001C000CF93DF93282F30E0F901E255FF4F849160
:1001D000F901E656FF4FD491F901EA57FF4FC49158
:1001E000CC23A9F0162F81110E948D00EC2FF0E096
:1001F000EE0FFF1FEE58FF4FA591B4918FB7F89403
:10020000EC91111108C0D095DE23DC938FBFDF91F4
:10021000CF911F910895DE2BF8CFCF93DF9390E01D
:10022000FC01E656FF4F24918A579F4FFC018491B1
:100230008823C9F090E0880F991FFC01E859FF4F0F
:10024000A591B491FC01EE58FF4FC591D491611175
:100250000DC09FB7F8948C91209582238C93888150
:10026000282328839FBFDF91CF910895623051F4F6
:100270009FB7F8943C91822F809583238C93E881DB
:100280002E2BEFCF8FB7F894EC912E2B2C938FBFA2
:10029000EACF1F93CF93DF93182FEB0161E00E9409
:1002A0000D01209739F460E0812FDF91CF911F91EC
:1002B0000C94DF00CF3FD10511F461E0F5CFE12FC1
:1002C000F0E0E255FF4FE491E33031F140F4E130EA
:1002D000B1F0E230E1F0C038D1057CF7E4CFE7308F
:1002E00029F1E83059F1E430B1F780918000806263
:1002F00080938000D0938B00C0938A0004C084B5A3
:10030000806884BDC7BDDF91CF911F91089584B5EA
:10031000806284BDC8BDF7CF8091800080688093E3
:100320008000D0938900C0938800EDCF8091B00009
:1003300080688093B000C093B300E5CF8091B00097
:1003400080628093B000C093B400DDCF3FB7F894D3
:100350008091670190916801A0916901B0916A0153
:1003600026B5A89B05C02F3F19F00196A11DB11D10
:100370003FBFBA2FA92F982F8827BC01CD01620F4C
:10038000711D811D911D42E0660F771F881F991F07
:100390004A95D1F70895AF92BF92CF92DF92EF9234
:1003A000FF920F931F93CF93DF936C017B018B011F
:1003B000040F151FEB015E01AE18BF08C017D1076F
:1003C00059F06991D601ED91FC910190F081E02DF9
:1003D000C6010995892B79F7C501DF91CF911F914E
:1003E0000F91FF90EF90DF90CF90BF90AF90089566
:1003F000FC01538D448D252F30E0842F90E0821B2B
:10040000930B541710F0CF96089501970895FC01AF
:10041000918D828D981761F0A28DAE0FBF2FB11D07
:100420005D968C91928D9F5F9F73928F90E008955F
:100430008FEF9FEF0895FC01918D828D981731F019
:10044000828DE80FF11D858D90E008958FEF9FEF6D
:100450000895FC01918D228D892F90E0805C9F4F43
:10046000821B91098F73992708958BE691E00E9472
:10047000290221E0892B09F420E0822F089580E0F1
:1004800090E0892B29F00E94350281110C94000024
:100490000895FC01A48DA80FB92FB11DA35ABF4F19
:1004A0002C91848D90E001968F739927848FA68973
:1004B000B7892C93A089B1898C91837080648C93C7
:1004C000938D848D981306C00288F389E02D808176
:1004D0008F7D80830895EF92FF920F931F93CF93A8
:1004E000DF93EC0181E0888F9B8D8C8D98131AC06F
:1004F000E889F989808185FF15C09FB7F894EE8956
:10050000FF896083E889F9898081837080648083B2
:100510009FBF81E090E0DF91CF911F910F91FF90FD
:10052000EF900895F62E0B8D10E00F5F1F4F0F73A5
:100530001127E02E8C8D8E110CC00FB607FCFACF60
:10054000E889F989808185FFF5CFCE010E944902B3
:10055000F1CFEB8DEC0FFD2FF11DE35AFF4FF08231
:100560009FB7F8940B8FEA89FB8980818062CFCF97
:10057000CF93DF93EC01888D8823B9F0AA89BB89DA
:10058000E889F9898C9185FD03C0808186FD0DC0C5
:100590000FB607FCF7CF8C9185FFF2CF808185FFE6
:1005A000EDCFCE010E944902E9CFDF91CF910895AE
:1005B000FC0101900020E9F73197AF01481B590B6E
:1005C000BC018BE691E00C94CB018F929F92AF928D
:1005D000BF920F931F93CF93DF93CDB7DEB7A19751
:1005E0000FB6F894DEBF0FBECDBF19A2423008F49B
:1005F0004AE08E010F5D1F4F842E912CB12CA12C4F
:10060000A50194010E941007E62FB901CA01EA3042
:10061000F4F4E05DD801EE938D01232B242B252BE0
:1006200079F790E080E0109719F0CD010E94D80290
:10063000A1960FB6F894DEBF0FBECDBFDF91CF916C
:100640001F910F91BF90AF909F908F900895E95C9C
:10065000E1CFCF92DF92EF92FF92CF93DF936B01C6
:100660007C016DE28BE691E00E946B02EC01662753
:100670007727CB016C197D098E099F094AE00E94FA
:10068000E5028C0F9D1FDF91CF91FF90EF90DF90DF
:10069000CF900895CF93DF93EC0180910802909161
:1006A0000902009759F020910A0230910B022C1791
:1006B0003D0720F081E0DF91CF910895BE016F5F8B
:1006C0007F4F0E946C08009789F0909309028093F5
:1006D0000802D0930B02C0930A0220910C023091C1
:1006E0000D02232B39F7FC011082E4CF80E0E3CF29
:1006F0000F931F93CF93DF938C01EC01099000209F
:10070000E9F72197C81BD90BCE010E944A0320911B
:10071000080230910902811117C02115310519F025
:10072000C9010E94E3071092090210920802109278
:100730000D0210920C0210920B0210920A02DF912D
:10074000CF911F910F910895D0930D02C0930C0289
:10075000B801C901DF91CF911F910F910C9432091B
:100760001F920F920FB60F9211242F933F938F93E6
:100770009F93AF93BF938091630190916401A09187
:100780006501B09166013091620123E0230F2D379E
:1007900058F50196A11DB11D20936201809363015C
:1007A00090936401A0936501B09366018091670105
:1007B00090916801A0916901B0916A010196A11D13
:1007C000B11D8093670190936801A0936901B09374
:1007D0006A01BF91AF919F918F913F912F910F909F
:1007E0000FBE0F901F90189526E8230F0296A11DAB
:1007F000B11DD2CF1F920F920FB60F9211242F93DB
:100800003F934F935F936F937F938F939F93AF9398
:10081000BF93EF93FF938BE691E00E944902FF9113
:10082000EF91BF91AF919F918F917F916F915F9168
:100830004F913F912F910F900FBE0F901F901895E1
:100840001F920F920FB60F9211242F938F939F93A5
:10085000EF93FF93E0917B01F0917C018081E09127
:100860008101F091820182FD1BC090818091840101
:100870008F5F8F7320918501821741F0E091840191
:10088000F0E0E559FE4F958F80938401FF91EF9141
:100890009F918F912F910F900FBE0F901F901895E1
:1008A0008081F4CF10926E0110926D0188EE93E07A
:1008B000A0E0B0E080936F0190937001A09371016C
:1008C000B09372018AE091E090936C0180936B0188
:1008D00085EC90E0909378018093770184EC90E030
:1008E00090937A018093790180EC90E090937C0161
:1008F00080937B0181EC90E090937E0180937D0159
:1009000082EC90E09093800180937F0186EC90E0F0
:10091000909382018093810110928401109285014D
:10092000109286011092870110920902109208021B
:1009300010920B0210920A0210920D0210920C02F9
:1009400090E080E00E944A03209108023091090261
:10095000811113C02115310519F0C9010E94E30767
:10096000109209021092080210920D0210920C02CD
:1009700010920B0210920A02089510920D0210922A
:100980000C0262E471E0C9010C943209789484B5D8
:10099000826084BD84B5816084BD85B5826085BD7B
:1009A00085B5816085BD80916E00816080936E0009
:1009B00010928100809181008260809381008091FB
:1009C00081008160809381008091800081608093AC
:1009D00080008091B10084608093B1008091B0006C
:1009E00081608093B00080917A00846080937A0067
:1009F00080917A00826080937A0080917A00816091
:100A000080937A0080917A00806880937A001092B7
:100A1000C10060E082E00E940D0160E083E00E947E
:100A20000D0162E084E00E940D0161E085E00E941A
:100A30000D0161E086E00E940D0161E087E00E9407
:100A40000D01E0917B01F0917C0182E08083E091D7
:100A50007701F09178011082E0917901F0917A01AB
:100A60008FEC808310928301E0917F01F0918001EF
:100A700086E08083E0917D01F0917E01808180613C
:100A80008083E0917D01F0917E0180818860808388
:100A9000E0917D01F0917E01808180688083E0910A
:100AA0007D01F0917E0180818F7D808382E00E94B4
:100AB000B60090935F0180935E0186EC882E912CA6
:100AC000A12CB12C22242A9433243394CC24CA940C
:100AD000D12CEE24E394F12C82E00E94B600909396
:100AE00061018093600120915E0130915F01821766
:100AF000930709F47CC0019709F079C083E00E9454
:100B0000B60020915C0130915D01019709F4E6C0C7
:100B10002150310930935D0120935C0188E191E01F
:100B20000E9478038CE191E00E94D80240910C026F
:100B300050910D0260910802709109028BE691E0DC
:100B40000E94CB0188E291E00E94D80260915C0192
:100B500070915D01072E000C880B990B97FFC7C0A1
:100B60000E94290385E391E00E94D80220915C0154
:100B700030915D01032E000C440B550B2D593F4F56
:100B80004F4F5F4FAFEFB2E00E94CE06A501940138
:100B90000E94AF0630935B0120935A01B901330FD5
:100BA000880B990B97FFA7C00E94290380E491E06E
:100BB0000E94D802C0915A01D0915B01CF3FD1056C
:100BC00011F00CF09CC0B6016C1B7D0B10E000E036
:100BD00087E00E944901B80185E00E944901BE01F9
:100BE00086E00E944901F0925501E0925401809103
:100BF00060019091610190935F0180935E0184E0B8
:100C00000E94B600892B09F04DC02FB7F89480914F
:100C1000630190916401A0916501B09166012FBFBD
:100C200040915601509157016091580170915901BE
:100C3000841B950BA60BB70BC397A105B105F8F064
:100C400083E491E00E94D80280E491E00E94D802FF
:100C50008091540190915501019709F066C060E0C0
:100C600087E00E94DF0060E086E00E94DF0060E035
:100C700085E00E94DF0010925501109254012FB7B9
:100C8000F8948091630190916401A0916501B09105
:100C900066012FBF8093560190935701A09358018E
:100CA000B09359010E94A6012B013C010E94A601AC
:100CB0006419750986099709683E73408105910595
:100CC000A8F380E090E0892B09F406CF0E9435025A
:100CD000882309F401CF0E940000FECE2F5F3F4F12
:100CE00030935D0120935C0189E191E019CF4AE0E6
:100CF0000E94E50237CF4AE00E94E50257CFC115B6
:100D000022E0D2074CF48E011A95C1018C1B9D0B79
:100D1000EC0170E060E05CCFBE0172500FEF12E0BA
:100D20000C1B1D0BD0E0C0E053CF61E087E00E94B8
:100D3000DF0061E086E00E94DF0061E085E00E9464
:100D4000DF00F0925501E092540199CF80910802A2
:100D500090910902009711F00C94E3070895052E75
:100D600097FB1EF400940E94C60657FD07D00E9410
:100D7000100707FC03D04EF40C94C606509540951E
:100D8000309521953F4F4F4F5F4F08959095809537
:100D9000709561957F4F8F4F9F4F08950E94320746
:100DA000A59F900DB49F900DA49F800D911D1124BF
:100DB00008952F923F924F925F926F927F928F92FF
:100DC0009F92AF92BF92CF92DF92EF92FF920F93DA
:100DD0001F93CF93DF93CDB7DEB7CA1BDB0B0FB6E4
:100DE000F894DEBF0FBECDBF09942A8839884888A1
:100DF0005F846E847D848C849B84AA84B984C88437
:100E0000DF80EE80FD800C811B81AA81B981CE0F2D
:100E1000D11D0FB6F894DEBF0FBECDBFED01089512
:100E2000A1E21A2EAA1BBB1BFD010DC0AA1FBB1FEE
:100E3000EE1FFF1FA217B307E407F50720F0A21B60
:100E4000B30BE40BF50B661F771F881F991F1A94CD
:100E500069F760957095809590959B01AC01BD01F7
:100E6000CF010895A29FB001B39FC001A39F700D51
:100E7000811D1124911DB29F700D811D1124911DA2
:100E80000895EE0FFF1F0590F491E02D09940F9344
:100E90001F93CF93DF938230910510F482E090E0AE
:100EA000E0911002F091110230E020E0B0E0A0E00B
:100EB000309799F42115310509F44AC0281B390BE4
:100EC00024303105D8F58A819B816115710589F13E
:100ED000FB0193838283FE0111C040815181028115
:100EE000138148175907E0F04817590799F41097EC
:100EF00061F012960C93129713961C933296CF01C1
:100F0000DF91CF911F910F910895009310021093DC
:100F10001102F4CF2115310551F04217530738F073
:100F2000A901DB019A01BD01DF01F801C1CFEF0189
:100F3000F9CF9093110280931002CDCFFE01E20F02
:100F4000F31F819391932250310939832883D7CF9E
:100F500020910E0230910F02232B41F420910201C7
:100F60003091030130930F0220930E022091000173
:100F7000309101012115310541F42DB73EB7409163
:100F8000040150910501241B350BE0910E02F091F4
:100F90000F02E217F307A0F42E1B3F0B28173907A7
:100FA00078F0AC014E5F5F4F2417350748F04E0FC5
:100FB0005F1F50930F0240930E02819391939FCF36
:100FC000F0E0E0E09CCFCF93DF930097E9F0FC01E5
:100FD000329713821282A0911002B0911102ED019A
:100FE00030E020E01097A1F420813181820F931F1F
:100FF00020910E0230910F022817390709F061C0C5
:10100000F0930F02E0930E02DF91CF910895EA0171
:10101000CE17DF07E8F54A815B819E014115510536
:10102000B1F7E901FB83EA8349915991C40FD51FB8
:10103000EC17FD0761F4808191810296840F951F62
:10104000E90199838883828193819B838A83F0E07D
:10105000E0E012968D919C9113970097B9F52D9130
:101060003C911197CD010296820F931F20910E02A1
:1010700030910F022817390739F6309751F5109241
:10108000110210921002B0930F02A0930E02BCCF77
:10109000D383C28340815181840F951FC817D9071C
:1010A00061F44E5F5F4F88819981480F591F5183CA
:1010B00040838A819B81938382832115310509F0C6
:1010C000B0CFF0931102E09310029ECFFD01DC013E
:1010D000C0CF13821282D7CFB0E0A0E0E2E7F8E001
:1010E0000C94DB068C01009751F4CB010E9447075A
:1010F0008C01C801CDB7DEB7E0E10C94F706FC0126
:10110000E60FF71F9C0122503109E217F30708F49C
:101110009DC0D901CD91DC911197C617D70798F0E2
:10112000C530D10530F3CE0104978617970708F331
:10113000C61BD70B2297C193D1936D937C93CF019C
:101140000E94E307D6CF5B01AC1ABD0A4C018C0E9E
:101150009D1EA0911002B0911102512C412CF12C36
:10116000E12C109731F580910E0290910F028815B5
:10117000990509F05CC04616570608F058C08091E2
:10118000000190910101009741F48DB79EB7409105
:10119000040150910501841B950BE817F90708F02D
:1011A00055C0F0930F02E0930E02F9017183608342
:1011B000A0CF8D919C91119712966C9012971396D7
:1011C0007C901397A815B90559F56C0142E0C40E3F
:1011D000D11CCA14DB0420F1AC014A195B09DA0105
:1011E0001296159780F06282738251834083D901F1
:1011F0006D937C93E114F10471F0D7011396FC9385
:10120000EE93129776CF22968C0F9D1FF901918352
:101210008083F301EFCFF0931102E093100269CFC6
:101220004816590608F42C017D01D3019ACFCB0151
:101230000E9447077C01009749F0AE01B8010E9467
:101240002909C8010E94E307870153CF10E000E09D
:1012500050CFFB01DC0102C001900D924150504083
:10126000D8F70895FB01DC0101900D920020E1F711
:10127000089510E0C2E6D0E004C0FE010E944107DC
:101280002196C336D107C9F7F894FFCF00001202A8
:101290008000000000006B02CB01F801B8022902B7
:1012A00007021B0243435700446972656374696F08
:1012B0006E3A2000207C20436F756E7465723A2070
:1012C00000207C20436F6C6F723A20000D0A0042B0
:1012D0007574746F6E20707265737365642100009D
:107800000C94343C0C94513C0C94513C0C94513CE1
:107810000C94513C0C94513C0C94513C0C94513CB4
:107820000C94513C0C94513C0C94513C0C94513CA4
:107830000C94513C0C94513C0C94513C0C94513C94
:107840000C94513C0C94513C0C94513C0C94513C84
:107850000C94513C0C94513C0C94513C0C94513C74
:107860000C94513C0C94513C11241FBECFEFD8E036
:10787000DEBFCDBF11E0A0E0B1E0ECE9FFE702C060
:1078800005900D92A230B107D9F712E0A2E0B1E065
:1078900001C01D92AD30B107E1F70E942D3D0C945F
:1078A000CC3F0C94003C982F959595959595959582
:1078B000905D8F708A307CF0282F295A8091C0000B
:1078C00085FFFCCF9093C6008091C00085FFFCCF60
:1078D0002093C6000895282F205DF0CF982F809127
:1078E000C00085FFFCCF9093C6000895EF92FF92F1
:1078F0000F931F93EE24FF2487018091C00087FD22
:1079000017C00894E11CF11C011D111D81E4E8164B
:1079100082E4F8068FE0080780E0180770F3E09132
:107920000401F091050109958091C00087FFE9CF1E
:107930008091C6001F910F91FF90EF9008950E94D3
:10794000763C982F8091C00085FFFCCF9093C600B5
:1079500091362CF490330CF09053892F089597555D
:10796000892F08951F930E949F3C182F0E949F3CCF
:107970001295107F810F1F9108951F93182F882350
:1079800021F00E94763C1150E1F71F9108951F935A
:10799000182F0E94763C803249F0809103018F5F5E
:1079A000809303018530C1F01F9108958091C0003C
:1079B00085FFFCCF84E18093C6008091C00085FFE5
:1079C000FCCF1093C6008091C00085FFFCCF80E102
:1079D0008093C6001F910895E0910401F091050184
:1079E00009951F9108950E94763C803241F0809164
:1079F00003018F5F80930301853081F008958091AA
:107A0000C00085FFFCCF84E18093C6008091C00058
:107A100085FFFCCF80E18093C6000895E0910401CA
:107A2000F09105010995089540E951E08823A1F0FE
:107A30002D9A28EE33E0FA013197F1F721503040CA
:107A4000D1F72D9828EE33E0FA013197F1F7215064
:107A50003040D1F7815061F708953F924F925F9285
:107A60006F927F928F929F92AF92BF92CF92DF924E
:107A7000EF92FF920F931F93CF93DF93000080E16B
:107A80008093C4001092C50088E18093C10086E015
:107A90008093C2005098589A259A81E00E94143D24
:107AA00024E1F22E9EE1E92E85E9D82E0FE0C02ECA
:107AB00010E1B12EAA24A394B1E49B2EA6E58A2E50
:107AC000F2E57F2EE0E26E2E79E4572E63E5462E36
:107AD00050E5352E0E94763C8033B1F18133B9F107
:107AE000803409F46FC0813409F476C0823409F41B
:107AF00085C0853409F488C0803531F1823521F1A3
:107B0000813511F1853509F485C0863509F48DC0BC
:107B1000843609F496C0843709F403C1853709F423
:107B200072C1863709F466C0809103018F5F80932C
:107B30000301853079F6E0910401F0910501099582
:107B40000E94763C803351F60E94F33CC3CF0E94E2
:107B5000763C803249F78091C00085FFFCCFF092DF
:107B6000C6008091C00085FFFCCF9092C600809136
:107B7000C00085FFFCCF8092C6008091C00085FFC9
:107B8000FCCF7092C6008091C00085FFFCCF609250
:107B9000C6008091C00085FFFCCF5092C600809146
:107BA000C00085FFFCCF4092C6008091C00085FFD9
:107BB000FCCF3092C6008091C00085FFFCCFB09210
:107BC000C60088CF0E94763C863808F4BDCF0E945C
:107BD000763C0E94F33C7ECF0E94763C803809F4CC
:107BE0009CC0813809F40BC1823809F43CC1883942
:107BF00009F48FC080E00E94C73C6CCF84E10E94F2
:107C0000BD3C0E94F33C66CF85E00E94BD3C0E94D3
:107C1000F33C60CF0E94763C809306010E94763C44
:107C2000809307010E94F33C55CF0E94763C80333D
:107C300009F41DC183E00E94BD3C80E00E94C73C66
:107C400049CF0E94763C809309020E94763C809343
:107C5000080280910C028E7F80930C020E94763C79
:107C6000853409F415C18091080290910902892B8D
:107C700089F000E010E00E94763CF801E85FFE4FDA
:107C800080830F5F1F4F80910802909109020817AF
:107C9000190788F30E94763C803209F045CF809125
:107CA0000C0280FF01C16091060170910701660F0F
:107CB000771F7093070160930601A0910802B091AD
:107CC00009021097C9F0E8E0F1E09B01AD014E0F09
:107CD0005F1FF999FECF32BD21BD819180BDFA9A17
:107CE000F99A2F5F3F4FE417F50799F76A0F7B1F4B
:107CF00070930701609306018091C00085FFFCCF5F
:107D0000F092C6008091C00085FFFCCFB092C60003
:107D1000E1CE83E00E94C73CDDCE82E00E94C73CFA
:107D2000D9CE0E94763C809309020E94763C8093D3
:107D300008028091060190910701880F991F909386
:107D40000701809306010E94763C853409F4A6C0A1
:107D500080910C028E7F80930C020E94763C8032D0
:107D600009F0B8CE8091C00085FFFCCFF092C6002C
:107D7000609108027091090261157105B9F140E046
:107D800050E080910C02A82FA170B82FB27011C0E2
:107D9000BB2309F45CC0E0910601F0910701319624
:107DA000F0930701E09306014F5F5F4F46175707B7
:107DB000E8F4AA2369F3F999FECF209106013091E6
:107DC000070132BD21BDF89A90B58091C00085FFB2
:107DD000FCCF9093C6002F5F3F4F30930701209355
:107DE00006014F5F5F4F4617570718F38091C00099
:107DF00085FDE5CE8091C00085FFF8CFE0CE81E023
:107E00000E94C73C67CE0E94763C803209F08CCE3F
:107E10008091C00085FFFCCFF092C6008091C00029
:107E200085FFFCCFE092C6008091C00085FFFCCFAB
:107E3000D092C6008091C00085FFFCCFC092C600E2
:107E40008091C00085FFFCCFB092C60043CEE09188
:107E50000601F091070194918091C00085FFFCCF4D
:107E60009093C6009CCF80E10E94C73C33CE0E9415
:107E7000763C0E94763C182F0E94763C112309F430
:107E800083C0113009F484C08FE00E94C73C22CE29
:107E900080910C02816080930C02E5CE80910C02EF
:107EA000816080930C0259CF809107018823880F4D
:107EB000880B8A2180930B02809106019091070123
:107EC000880F991F90930701809306018091080203
:107ED00080FF09C080910802909109020196909359
:107EE000090280930802F894F999FECF1127E091D6
:107EF0000601F0910701C8E0D1E08091080290915D
:107F00000902103091F40091570001700130D9F34B
:107F100003E000935700E89500915700017001308D
:107F2000D9F301E100935700E89509901990009169
:107F3000570001700130D9F301E000935700E89534
:107F40001395103498F011270091570001700130FB
:107F5000D9F305E000935700E895009157000170B0
:107F60000130D9F301E100935700E895329602976A
:107F700009F0C7CF103011F00296E5CF112480919F
:107F8000C00085FFB9CEBCCE8EE10E94C73CA2CD19
:0E7F900085E90E94C73C9ECDF894FFCF80008B
:00000001FF
